:100000000C945B000C94B4000C94D1000C9483000D
:100010000C9483000C9483000C9483000C94830054
:100020000C9483000C9483000C9483000C94830044
:100030000C9483000C9483000C9483000C94830034
:100040000C94EE000C9483000C9433020C94830007
:100050000C9483000C9483000C9483000C94830014
:100060000C9483000C948300000024272A000025B0
:10007000282B000023262904040404040404040299
:100080000202020202030303030303010204081035
:100090002040800102040810200102040810200002
:1000A0000000070002010000030406000000000039
:1000B00000000000A90011241FBECFEFD4E0DEBF76
:1000C000CDBF11E0A0E0B1E0EEE3F5E002C00590A5
:1000D0000D92A830B107D9F711E0A8E0B1E001C056
:1000E0001D92AE39B107E1F710E0C6EBD0E004C0D5
:1000F0002297FE010E949902C43BD107C9F70E94D2
:10010000A2000C949D020C94000061E0809100011B
:100110000E94E00162E370E080E090E00E945E01F6
:1001200060E0809100010E94E00168EE73E080E0F1
:1001300090E00E945E01E9CF61E0809100010E94A1
:10014000C20108950E9488010E949C000E948500BF
:10015000FDCF86E091E09093090180930801089516
:10016000862F0E942B0208951F920F920FB60F92B6
:1001700011248F939F93EF93FF9380910A019091A5
:100180000B01892B29F0E0910A01F0910B010995EF
:10019000FF91EF919F918F910F900FBE0F901F9045
:1001A00018951F920F920FB60F9211248F939F9361
:1001B000EF93FF9380910C0190910D01892B29F011
:1001C000E0910C01F0910D010995FF91EF919F9144
:1001D0008F910F900FBE0F901F9018951F920F9246
:1001E0000FB60F9211242F938F939F93AF93BF93CA
:1001F00080910E0190910F01A0911001B091110119
:100200000196A11DB11D80930E0190930F01A09343
:100210001001B09311018091120190911301A091EE
:100220001401B09115018050904CAF4FBF4F809397
:10023000120190931301A0931401B093150127C0EC
:100240008091120190911301A0911401B0911501B8
:1002500080589E43A040B0408093120190931301B8
:10026000A0931401B093150180911601909117018C
:10027000A0911801B09119010196A11DB11D8093A3
:10028000160190931701A0931801B0931901809162
:10029000120190911301A0911401B09115018158A0
:1002A0009E43A040B04060F6BF91AF919F918F9167
:1002B0002F910F900FBE0F901F901895EF92FF9205
:1002C0000F931F937B018C018FB7F8944091160117
:1002D0005091170160911801709119018FBF2FB7CC
:1002E000F8948091160190911701A0911801B09196
:1002F00019012FBF841B950BA60BB70BE816F90647
:100300000A071B0760F71F910F91FF90EF90089568
:10031000789484B5826084BD84B5816084BD85B5E0
:10032000826085BD85B5816085BDEEE6F0E08081A7
:1003300081608083E1E8F0E0808182608083808159
:1003400081608083E0E8F0E0808181608083E1EB80
:10035000F0E0808184608083E0EBF0E08081816068
:100360008083EAE7F0E0808184608083808182601E
:100370008083808181608083808180688083109207
:10038000C1000895282F30E0C90185579F4FFC0117
:10039000949129583F4FF9018491882381F0E82FE7
:1003A000F0E0E859FF4FE491F0E0662329F4808102
:1003B00090958923808308958081892B8083089577
:1003C000482F50E0CA0181569F4FFC012491CA0179
:1003D00085579F4FFC01949149585F4FFA01349122
:1003E0003323C1F1222331F1233021F480918000A5
:1003F0008F7705C0243031F4809180008F7D809309
:10040000800018C0213019F484B58F7704C02230E1
:1004100021F484B58F7D84BD0DC0263021F48091F8
:10042000B0008F7705C0273029F48091B0008F7D10
:100430008093B000E32FF0E0E359FF4FE491F0E048
:10044000662329F480819095892380830895808193
:10045000892B80830895982F8091C00085FFFCCF61
:100460009093C60008951F920F920FB60F92112419
:100470002F933F934F935F936F937F938F939F93AC
:10048000AF93BF93EF93FF934091C600E0911A01A1
:10049000F0911B01CF01019660E870E00E947002AC
:1004A0009C0180911C0190911D012817390739F09A
:1004B000E25EFE4F408330931B0120931A01FF91AF
:1004C000EF91BF91AF919F918F917F916F915F91CC
:1004D0004F913F912F910F900FBE0F901F90189545
:1004E00097FB092E07260AD077FD04D00CD006D042
:1004F00000201AF4709561957F4F0895F6F7909556
:1005000081959F4F0895AA1BBB1B51E107C0AA1FED
:10051000BB1FA617B70710F0A61BB70B881F991FA4
:100520005A95A9F780959095BC01CD010895EE0FDD
:0E053000FF1F0590F491E02D0994F894FFCF81
:08053E00080000000000B000FD
:00000001FF
